{
    "contractName": "WhiteListedPresale",
    "abi": [
        {
            "inputs": [
                {
                    "internalType": "address",
                    "name": "_ERC20TokenSourceWallet",
                    "type": "address"
                },
                {
                    "internalType": "address",
                    "name": "_saleTokenAddress",
                    "type": "address"
                },
                {
                    "internalType": "address",
                    "name": "_priceTokenAddress",
                    "type": "address"
                },
                {
                    "internalType": "uint256",
                    "name": "_tokenPrice",
                    "type": "uint256"
                },
                {
                    "internalType": "uint256",
                    "name": "_tokenOffer1",
                    "type": "uint256"
                },
                {
                    "internalType": "uint256",
                    "name": "_tokenOffer2",
                    "type": "uint256"
                },
                {
                    "internalType": "uint256",
                    "name": "_tokenOffer3",
                    "type": "uint256"
                },
                {
                    "internalType": "address[]",
                    "name": "_whiteListAddresses",
                    "type": "address[]"
                },
                {
                    "internalType": "uint256[]",
                    "name": "_whiteListBuyLimits",
                    "type": "uint256[]"
                },
                {
                    "internalType": "bool",
                    "name": "_whitelistOnly",
                    "type": "bool"
                }
            ],
            "stateMutability": "nonpayable",
            "type": "constructor"
        },
        {
            "anonymous": false,
            "inputs": [
                {
                    "indexed": true,
                    "internalType": "address",
                    "name": "previousOwner",
                    "type": "address"
                },
                {
                    "indexed": true,
                    "internalType": "address",
                    "name": "newOwner",
                    "type": "address"
                }
            ],
            "name": "OwnershipTransferred",
            "type": "event"
        },
        {
            "inputs": [],
            "name": "ERC20TokenSourceWallet",
            "outputs": [
                {
                    "internalType": "address",
                    "name": "",
                    "type": "address"
                }
            ],
            "stateMutability": "view",
            "type": "function"
        },
        {
            "inputs": [
                {
                    "internalType": "uint256",
                    "name": "tokenQuantity",
                    "type": "uint256"
                }
            ],
            "name": "buyTokens",
            "outputs": [],
            "stateMutability": "nonpayable",
            "type": "function"
        },
        {
            "inputs": [
                {
                    "internalType": "bool",
                    "name": "_whitelistOnly",
                    "type": "bool"
                }
            ],
            "name": "changeWhitelistRequirement",
            "outputs": [],
            "stateMutability": "nonpayable",
            "type": "function"
        },
        {
            "inputs": [
                {
                    "internalType": "address",
                    "name": "_address",
                    "type": "address"
                }
            ],
            "name": "getCurrentAllowance",
            "outputs": [
                {
                    "internalType": "uint256",
                    "name": "",
                    "type": "uint256"
                }
            ],
            "stateMutability": "view",
            "type": "function"
        },
        {
            "inputs": [
                {
                    "internalType": "address",
                    "name": "",
                    "type": "address"
                }
            ],
            "name": "maxBuyMapping",
            "outputs": [
                {
                    "internalType": "uint256",
                    "name": "",
                    "type": "uint256"
                }
            ],
            "stateMutability": "view",
            "type": "function"
        },
        {
            "inputs": [],
            "name": "owner",
            "outputs": [
                {
                    "internalType": "address",
                    "name": "",
                    "type": "address"
                }
            ],
            "stateMutability": "view",
            "type": "function"
        },
        {
            "inputs": [],
            "name": "priceTokenAddress",
            "outputs": [
                {
                    "internalType": "address",
                    "name": "",
                    "type": "address"
                }
            ],
            "stateMutability": "view",
            "type": "function"
        },
        {
            "inputs": [],
            "name": "renounceOwnership",
            "outputs": [],
            "stateMutability": "nonpayable",
            "type": "function"
        },
        {
            "inputs": [],
            "name": "saleTokenAddress",
            "outputs": [
                {
                    "internalType": "address",
                    "name": "",
                    "type": "address"
                }
            ],
            "stateMutability": "view",
            "type": "function"
        },
        {
            "inputs": [],
            "name": "tokenOffer1",
            "outputs": [
                {
                    "internalType": "uint256",
                    "name": "",
                    "type": "uint256"
                }
            ],
            "stateMutability": "view",
            "type": "function"
        },
        {
            "inputs": [],
            "name": "tokenOffer2",
            "outputs": [
                {
                    "internalType": "uint256",
                    "name": "",
                    "type": "uint256"
                }
            ],
            "stateMutability": "view",
            "type": "function"
        },
        {
            "inputs": [],
            "name": "tokenOffer3",
            "outputs": [
                {
                    "internalType": "uint256",
                    "name": "",
                    "type": "uint256"
                }
            ],
            "stateMutability": "view",
            "type": "function"
        },
        {
            "inputs": [],
            "name": "tokenPrice",
            "outputs": [
                {
                    "internalType": "uint256",
                    "name": "",
                    "type": "uint256"
                }
            ],
            "stateMutability": "view",
            "type": "function"
        },
        {
            "inputs": [
                {
                    "internalType": "address",
                    "name": "newOwner",
                    "type": "address"
                }
            ],
            "name": "transferOwnership",
            "outputs": [],
            "stateMutability": "nonpayable",
            "type": "function"
        },
        {
            "inputs": [],
            "name": "whitelistOnly",
            "outputs": [
                {
                    "internalType": "bool",
                    "name": "",
                    "type": "bool"
                }
            ],
            "stateMutability": "view",
            "type": "function"
        }
    ],
    "bytecode": "60806040523480156200001157600080fd5b5060405162000dd238038062000dd2833981016040819052620000349162000318565b6200003f336200014d565b600180546001600160a01b03808d166001600160a01b031992831617909255600280548c8416908316811790915560038054938c16938316841790556008805483169091179055600980549091169091179055600487905560058690556006859055600784905560005b83518110156200012b57828181518110620000c857620000c8620003f4565b6020026020010151600a6000868481518110620000e957620000e9620003f4565b60200260200101516001600160a01b03166001600160a01b0316815260200190815260200160002081905550808062000122906200040a565b915050620000a9565b50600b805460ff19169115159190911790555062000434975050505050505050565b600080546001600160a01b038381166001600160a01b0319831681178455604051919092169283917f8be0079c531659141344cd1fd0a4f28419497f9722a3daafe3b4186f6b6457e09190a35050565b80516001600160a01b0381168114620001b557600080fd5b919050565b634e487b7160e01b600052604160045260246000fd5b604051601f8201601f191681016001600160401b0381118282101715620001fb57620001fb620001ba565b604052919050565b60006001600160401b038211156200021f576200021f620001ba565b5060051b60200190565b600082601f8301126200023b57600080fd5b81516020620002546200024e8362000203565b620001d0565b82815260059290921b840181019181810190868411156200027457600080fd5b8286015b848110156200029a576200028c816200019d565b835291830191830162000278565b509695505050505050565b600082601f830112620002b757600080fd5b81516020620002ca6200024e8362000203565b82815260059290921b84018101918181019086841115620002ea57600080fd5b8286015b848110156200029a5780518352918301918301620002ee565b80518015158114620001b557600080fd5b6000806000806000806000806000806101408b8d0312156200033957600080fd5b620003448b6200019d565b99506200035460208c016200019d565b98506200036460408c016200019d565b975060608b0151965060808b0151955060a08b0151945060c08b0151935060e08b015160018060401b03808211156200039c57600080fd5b620003aa8e838f0162000229565b94506101008d0151915080821115620003c257600080fd5b50620003d18d828e01620002a5565b925050620003e36101208c0162000307565b90509295989b9194979a5092959850565b634e487b7160e01b600052603260045260246000fd5b60006000198214156200042d57634e487b7160e01b600052601160045260246000fd5b5060010190565b61098e80620004446000396000f3fe608060405234801561001057600080fd5b50600436106100f55760003560e01c80638da5cb5b11610097578063af82d98311610066578063af82d983146101da578063c42426ca146101ed578063eb758aed14610216578063f2fde38b1461022957600080fd5b80638da5cb5b14610197578063962119fe146101a85780639fa85b7e146101b1578063ae48133f146101d157600080fd5b8063532ed0e2116100d3578063532ed0e214610148578063715018a61461017357806373cc24461461017b5780637ff9b5961461018e57600080fd5b80630ef849eb146100fa5780633610724e146101165780634b4687b51461012b575b600080fd5b61010360075481565b6040519081526020015b60405180910390f35b6101296101243660046107cf565b61023c565b005b600b546101389060ff1681565b604051901515815260200161010d565b60015461015b906001600160a01b031681565b6040516001600160a01b03909116815260200161010d565b6101296103b7565b6101296101893660046107f6565b6103ed565b61010360045481565b6000546001600160a01b031661015b565b61010360055481565b6101036101bf366004610813565b600a6020526000908152604090205481565b61010360065481565b60025461015b906001600160a01b031681565b6101036101fb366004610813565b6001600160a01b03166000908152600a602052604090205490565b60035461015b906001600160a01b031681565b610129610237366004610813565b61042a565b600b54819060ff161561034d57336000908152600a60205260409020548111156102bc5760405162461bcd60e51b815260206004820152602660248201527f57686974654c697374656450726573616c653a206e6f20746f6b656e20616c6c6044820152656f77616e636560d01b60648201526084015b60405180910390fd5b6005548114806102cd575060065481145b806102d9575060075481145b61033c5760405162461bcd60e51b815260206004820152602e60248201527f57686974654c697374656450726573616c653a20746f6b656e207175616e746960448201526d1d1e481b9bdd08185b1b1bddd95960921b60648201526084016102b3565b336000908152600a60205260408120555b6001546004546103959133916001600160a01b0390911690610377670de0b6b3a76400008761083c565b610381919061085e565b6009546001600160a01b03169291906104c5565b6001546008546103b3916001600160a01b03918216911633856104c5565b5050565b6000546001600160a01b031633146103e15760405162461bcd60e51b81526004016102b39061088b565b6103eb6000610525565b565b6000546001600160a01b031633146104175760405162461bcd60e51b81526004016102b39061088b565b600b805460ff1916911515919091179055565b6000546001600160a01b031633146104545760405162461bcd60e51b81526004016102b39061088b565b6001600160a01b0381166104b95760405162461bcd60e51b815260206004820152602660248201527f4f776e61626c653a206e6577206f776e657220697320746865207a65726f206160448201526564647265737360d01b60648201526084016102b3565b6104c281610525565b50565b604080516001600160a01b0385811660248301528416604482015260648082018490528251808303909101815260849091019091526020810180516001600160e01b03166323b872dd60e01b17905261051f908590610575565b50505050565b600080546001600160a01b038381166001600160a01b0319831681178455604051919092169283917f8be0079c531659141344cd1fd0a4f28419497f9722a3daafe3b4186f6b6457e09190a35050565b60006105ca826040518060400160405280602081526020017f5361666545524332303a206c6f772d6c6576656c2063616c6c206661696c6564815250856001600160a01b031661064c9092919063ffffffff16565b80519091501561064757808060200190518101906105e891906108c0565b6106475760405162461bcd60e51b815260206004820152602a60248201527f5361666545524332303a204552433230206f7065726174696f6e20646964206e6044820152691bdd081cdd58d8d9595960b21b60648201526084016102b3565b505050565b606061065b8484600085610665565b90505b9392505050565b6060824710156106c65760405162461bcd60e51b815260206004820152602660248201527f416464726573733a20696e73756666696369656e742062616c616e636520666f6044820152651c8818d85b1b60d21b60648201526084016102b3565b6001600160a01b0385163b61071d5760405162461bcd60e51b815260206004820152601d60248201527f416464726573733a2063616c6c20746f206e6f6e2d636f6e747261637400000060448201526064016102b3565b600080866001600160a01b031685876040516107399190610909565b60006040518083038185875af1925050503d8060008114610776576040519150601f19603f3d011682016040523d82523d6000602084013e61077b565b606091505b509150915061078b828286610796565b979650505050505050565b606083156107a557508161065e565b8251156107b55782518084602001fd5b8160405162461bcd60e51b81526004016102b39190610925565b6000602082840312156107e157600080fd5b5035919050565b80151581146104c257600080fd5b60006020828403121561080857600080fd5b813561065e816107e8565b60006020828403121561082557600080fd5b81356001600160a01b038116811461065e57600080fd5b60008261085957634e487b7160e01b600052601260045260246000fd5b500490565b600081600019048311821515161561088657634e487b7160e01b600052601160045260246000fd5b500290565b6020808252818101527f4f776e61626c653a2063616c6c6572206973206e6f7420746865206f776e6572604082015260600190565b6000602082840312156108d257600080fd5b815161065e816107e8565b60005b838110156108f85781810151838201526020016108e0565b8381111561051f5750506000910152565b6000825161091b8184602087016108dd565b9190910192915050565b60208152600082518060208401526109448160408501602087016108dd565b601f01601f1916919091016040019291505056fea2646970667358221220e8ba68db73e98ec3af91c3bc9d14f4ad11111643a3f3e52f7af2d0bdb26a38f764736f6c634300080b0033",
    "sourcePath": "c:/Users/Joao/Documents/cryptomonkeysgame/crypto_game_boilerplate/contracts/presale/WhiteListedPresale.sol",
    "compiler": {
        "name": "solc",
        "version": "0.8.11+commit.d7f03943"
    },
    "functionHashes": {
        "ERC20TokenSourceWallet()": "532ed0e2",
        "buyTokens(uint256)": "3610724e",
        "changeWhitelistRequirement(bool)": "73cc2446",
        "getCurrentAllowance(address)": "c42426ca",
        "maxBuyMapping(address)": "9fa85b7e",
        "owner()": "8da5cb5b",
        "priceTokenAddress()": "eb758aed",
        "renounceOwnership()": "715018a6",
        "saleTokenAddress()": "af82d983",
        "tokenOffer1()": "962119fe",
        "tokenOffer2()": "ae48133f",
        "tokenOffer3()": "0ef849eb",
        "tokenPrice()": "7ff9b596",
        "transferOwnership(address)": "f2fde38b",
        "whitelistOnly()": "4b4687b5"
    },
    "gasEstimates": {
        "creation": {
            "codeDepositCost": "489200",
            "executionCost": "infinite",
            "totalCost": "infinite"
        },
        "external": {
            "ERC20TokenSourceWallet()": "2360",
            "buyTokens(uint256)": "infinite",
            "changeWhitelistRequirement(bool)": "26730",
            "getCurrentAllowance(address)": "2535",
            "maxBuyMapping(address)": "2540",
            "owner()": "2354",
            "priceTokenAddress()": "2403",
            "renounceOwnership()": "28159",
            "saleTokenAddress()": "2359",
            "tokenOffer1()": "2329",
            "tokenOffer2()": "2373",
            "tokenOffer3()": "2308",
            "tokenPrice()": "2373",
            "transferOwnership(address)": "28362",
            "whitelistOnly()": "2378"
        }
    }
}